{
  "contracts/MultiBalance.sol": {
    "MultiBalance": {
      "abi": [
        {
          "inputs": [
            {
              "internalType": "bytes",
              "name": "payload",
              "type": "bytes"
            }
          ],
          "name": "getBalances",
          "outputs": [
            {
              "internalType": "uint256[]",
              "name": "",
              "type": "uint256[]"
            }
          ],
          "stateMutability": "view",
          "type": "function"
        }
      ],
      "evm": {
        "bytecode": {
          "linkReferences": {},
          "object": "6080604052348015600f57600080fd5b506108218061001f6000396000f3fe608060405234801561001057600080fd5b506004361061002b5760003560e01c806376cbf1a414610030575b600080fd5b61004a6004803603810190610045919061043e565b610060565b604051610057919061054f565b60405180910390f35b606060006028835161007291906105a0565b146100b2576040517f08c379a00000000000000000000000000000000000000000000000000000000081526004016100a99061062e565b60405180910390fd5b6000602883516100c2919061064e565b905060008167ffffffffffffffff8111156100e0576100df610313565b5b60405190808252806020026020018201604052801561010e5781602001602082028036833780820191505090505b50905060005b828110156102d95760008060288302601488010173ffffffffffffffffffffffffffffffffffffffff815116925073ffffffffffffffffffffffffffffffffffffffff6014820151169150506000808273ffffffffffffffffffffffffffffffffffffffff168460405160240161018b91906106c0565b6040516020818303038152906040527f70a08231000000000000000000000000000000000000000000000000000000007bffffffffffffffffffffffffffffffffffffffffffffffffffffffff19166020820180517bffffffffffffffffffffffffffffffffffffffffffffffffffffffff8381831617835250505050604051610215919061074c565b600060405180830381855afa9150503d8060008114610250576040519150601f19603f3d011682016040523d82523d6000602084013e610255565b606091505b509150915081801561026957506020815110155b156102a65780806020019051810190610282919061078f565b868681518110610295576102946107bc565b5b6020026020010181815250506102c8565b60008686815181106102bb576102ba6107bc565b5b6020026020010181815250505b505050508080600101915050610114565b508092505050919050565b6000604051905090565b600080fd5b600080fd5b600080fd5b600080fd5b6000601f19601f8301169050919050565b7f4e487b7100000000000000000000000000000000000000000000000000000000600052604160045260246000fd5b61034b82610302565b810181811067ffffffffffffffff8211171561036a57610369610313565b5b80604052505050565b600061037d6102e4565b90506103898282610342565b919050565b600067ffffffffffffffff8211156103a9576103a8610313565b5b6103b282610302565b9050602081019050919050565b82818337600083830152505050565b60006103e16103dc8461038e565b610373565b9050828152602081018484840111156103fd576103fc6102fd565b5b6104088482856103bf565b509392505050565b600082601f830112610425576104246102f8565b5b81356104358482602086016103ce565b91505092915050565b600060208284031215610454576104536102ee565b5b600082013567ffffffffffffffff811115610472576104716102f3565b5b61047e84828501610410565b91505092915050565b600081519050919050565b600082825260208201905092915050565b6000819050602082019050919050565b6000819050919050565b6104c6816104b3565b82525050565b60006104d883836104bd565b60208301905092915050565b6000602082019050919050565b60006104fc82610487565b6105068185610492565b9350610511836104a3565b8060005b8381101561054257815161052988826104cc565b9750610534836104e4565b925050600181019050610515565b5085935050505092915050565b6000602082019050818103600083015261056981846104f1565b905092915050565b7f4e487b7100000000000000000000000000000000000000000000000000000000600052601260045260246000fd5b60006105ab826104b3565b91506105b6836104b3565b9250826105c6576105c5610571565b5b828206905092915050565b600082825260208201905092915050565b7f496e76616c6964207061796c6f6164206c656e67746800000000000000000000600082015250565b60006106186016836105d1565b9150610623826105e2565b602082019050919050565b600060208201905081810360008301526106478161060b565b9050919050565b6000610659826104b3565b9150610664836104b3565b92508261067457610673610571565b5b828204905092915050565b600073ffffffffffffffffffffffffffffffffffffffff82169050919050565b60006106aa8261067f565b9050919050565b6106ba8161069f565b82525050565b60006020820190506106d560008301846106b1565b92915050565b600081519050919050565b600081905092915050565b60005b8381101561070f5780820151818401526020810190506106f4565b60008484015250505050565b6000610726826106db565b61073081856106e6565b93506107408185602086016106f1565b80840191505092915050565b6000610758828461071b565b915081905092915050565b61076c816104b3565b811461077757600080fd5b50565b60008151905061078981610763565b92915050565b6000602082840312156107a5576107a46102ee565b5b60006107b38482850161077a565b91505092915050565b7f4e487b7100000000000000000000000000000000000000000000000000000000600052603260045260246000fdfea26469706673582212203c237f747f435e2226e4028eff0785e626fdba16c42e5ed000b0463e142c67c864736f6c634300081b0033",
          "opcodes": "PUSH1 0x80 PUSH1 0x40 MSTORE CALLVALUE DUP1 ISZERO PUSH1 0xF JUMPI PUSH1 0x0 DUP1 REVERT JUMPDEST POP PUSH2 0x821 DUP1 PUSH2 0x1F PUSH1 0x0 CODECOPY PUSH1 0x0 RETURN INVALID PUSH1 0x80 PUSH1 0x40 MSTORE CALLVALUE DUP1 ISZERO PUSH2 0x10 JUMPI PUSH1 0x0 DUP1 REVERT JUMPDEST POP PUSH1 0x4 CALLDATASIZE LT PUSH2 0x2B JUMPI PUSH1 0x0 CALLDATALOAD PUSH1 0xE0 SHR DUP1 PUSH4 0x76CBF1A4 EQ PUSH2 0x30 JUMPI JUMPDEST PUSH1 0x0 DUP1 REVERT JUMPDEST PUSH2 0x4A PUSH1 0x4 DUP1 CALLDATASIZE SUB DUP2 ADD SWAP1 PUSH2 0x45 SWAP2 SWAP1 PUSH2 0x43E JUMP JUMPDEST PUSH2 0x60 JUMP JUMPDEST PUSH1 0x40 MLOAD PUSH2 0x57 SWAP2 SWAP1 PUSH2 0x54F JUMP JUMPDEST PUSH1 0x40 MLOAD DUP1 SWAP2 SUB SWAP1 RETURN JUMPDEST PUSH1 0x60 PUSH1 0x0 PUSH1 0x28 DUP4 MLOAD PUSH2 0x72 SWAP2 SWAP1 PUSH2 0x5A0 JUMP JUMPDEST EQ PUSH2 0xB2 JUMPI PUSH1 0x40 MLOAD PUSH32 0x8C379A000000000000000000000000000000000000000000000000000000000 DUP2 MSTORE PUSH1 0x4 ADD PUSH2 0xA9 SWAP1 PUSH2 0x62E JUMP JUMPDEST PUSH1 0x40 MLOAD DUP1 SWAP2 SUB SWAP1 REVERT JUMPDEST PUSH1 0x0 PUSH1 0x28 DUP4 MLOAD PUSH2 0xC2 SWAP2 SWAP1 PUSH2 0x64E JUMP JUMPDEST SWAP1 POP PUSH1 0x0 DUP2 PUSH8 0xFFFFFFFFFFFFFFFF DUP2 GT ISZERO PUSH2 0xE0 JUMPI PUSH2 0xDF PUSH2 0x313 JUMP JUMPDEST JUMPDEST PUSH1 0x40 MLOAD SWAP1 DUP1 DUP3 MSTORE DUP1 PUSH1 0x20 MUL PUSH1 0x20 ADD DUP3 ADD PUSH1 0x40 MSTORE DUP1 ISZERO PUSH2 0x10E JUMPI DUP2 PUSH1 0x20 ADD PUSH1 0x20 DUP3 MUL DUP1 CALLDATASIZE DUP4 CALLDATACOPY DUP1 DUP3 ADD SWAP2 POP POP SWAP1 POP JUMPDEST POP SWAP1 POP PUSH1 0x0 JUMPDEST DUP3 DUP2 LT ISZERO PUSH2 0x2D9 JUMPI PUSH1 0x0 DUP1 PUSH1 0x28 DUP4 MUL PUSH1 0x14 DUP9 ADD ADD PUSH20 0xFFFFFFFFFFFFFFFFFFFFFFFFFFFFFFFFFFFFFFFF DUP2 MLOAD AND SWAP3 POP PUSH20 0xFFFFFFFFFFFFFFFFFFFFFFFFFFFFFFFFFFFFFFFF PUSH1 0x14 DUP3 ADD MLOAD AND SWAP2 POP POP PUSH1 0x0 DUP1 DUP3 PUSH20 0xFFFFFFFFFFFFFFFFFFFFFFFFFFFFFFFFFFFFFFFF AND DUP5 PUSH1 0x40 MLOAD PUSH1 0x24 ADD PUSH2 0x18B SWAP2 SWAP1 PUSH2 0x6C0 JUMP JUMPDEST PUSH1 0x40 MLOAD PUSH1 0x20 DUP2 DUP4 SUB SUB DUP2 MSTORE SWAP1 PUSH1 0x40 MSTORE PUSH32 0x70A0823100000000000000000000000000000000000000000000000000000000 PUSH28 0xFFFFFFFFFFFFFFFFFFFFFFFFFFFFFFFFFFFFFFFFFFFFFFFFFFFFFFFF NOT AND PUSH1 0x20 DUP3 ADD DUP1 MLOAD PUSH28 0xFFFFFFFFFFFFFFFFFFFFFFFFFFFFFFFFFFFFFFFFFFFFFFFFFFFFFFFF DUP4 DUP2 DUP4 AND OR DUP4 MSTORE POP POP POP POP PUSH1 0x40 MLOAD PUSH2 0x215 SWAP2 SWAP1 PUSH2 0x74C JUMP JUMPDEST PUSH1 0x0 PUSH1 0x40 MLOAD DUP1 DUP4 SUB DUP2 DUP6 GAS STATICCALL SWAP2 POP POP RETURNDATASIZE DUP1 PUSH1 0x0 DUP2 EQ PUSH2 0x250 JUMPI PUSH1 0x40 MLOAD SWAP2 POP PUSH1 0x1F NOT PUSH1 0x3F RETURNDATASIZE ADD AND DUP3 ADD PUSH1 0x40 MSTORE RETURNDATASIZE DUP3 MSTORE RETURNDATASIZE PUSH1 0x0 PUSH1 0x20 DUP5 ADD RETURNDATACOPY PUSH2 0x255 JUMP JUMPDEST PUSH1 0x60 SWAP2 POP JUMPDEST POP SWAP2 POP SWAP2 POP DUP2 DUP1 ISZERO PUSH2 0x269 JUMPI POP PUSH1 0x20 DUP2 MLOAD LT ISZERO JUMPDEST ISZERO PUSH2 0x2A6 JUMPI DUP1 DUP1 PUSH1 0x20 ADD SWAP1 MLOAD DUP2 ADD SWAP1 PUSH2 0x282 SWAP2 SWAP1 PUSH2 0x78F JUMP JUMPDEST DUP7 DUP7 DUP2 MLOAD DUP2 LT PUSH2 0x295 JUMPI PUSH2 0x294 PUSH2 0x7BC JUMP JUMPDEST JUMPDEST PUSH1 0x20 MUL PUSH1 0x20 ADD ADD DUP2 DUP2 MSTORE POP POP PUSH2 0x2C8 JUMP JUMPDEST PUSH1 0x0 DUP7 DUP7 DUP2 MLOAD DUP2 LT PUSH2 0x2BB JUMPI PUSH2 0x2BA PUSH2 0x7BC JUMP JUMPDEST JUMPDEST PUSH1 0x20 MUL PUSH1 0x20 ADD ADD DUP2 DUP2 MSTORE POP POP JUMPDEST POP POP POP POP DUP1 DUP1 PUSH1 0x1 ADD SWAP2 POP POP PUSH2 0x114 JUMP JUMPDEST POP DUP1 SWAP3 POP POP POP SWAP2 SWAP1 POP JUMP JUMPDEST PUSH1 0x0 PUSH1 0x40 MLOAD SWAP1 POP SWAP1 JUMP JUMPDEST PUSH1 0x0 DUP1 REVERT JUMPDEST PUSH1 0x0 DUP1 REVERT JUMPDEST PUSH1 0x0 DUP1 REVERT JUMPDEST PUSH1 0x0 DUP1 REVERT JUMPDEST PUSH1 0x0 PUSH1 0x1F NOT PUSH1 0x1F DUP4 ADD AND SWAP1 POP SWAP2 SWAP1 POP JUMP JUMPDEST PUSH32 0x4E487B7100000000000000000000000000000000000000000000000000000000 PUSH1 0x0 MSTORE PUSH1 0x41 PUSH1 0x4 MSTORE PUSH1 0x24 PUSH1 0x0 REVERT JUMPDEST PUSH2 0x34B DUP3 PUSH2 0x302 JUMP JUMPDEST DUP2 ADD DUP2 DUP2 LT PUSH8 0xFFFFFFFFFFFFFFFF DUP3 GT OR ISZERO PUSH2 0x36A JUMPI PUSH2 0x369 PUSH2 0x313 JUMP JUMPDEST JUMPDEST DUP1 PUSH1 0x40 MSTORE POP POP POP JUMP JUMPDEST PUSH1 0x0 PUSH2 0x37D PUSH2 0x2E4 JUMP JUMPDEST SWAP1 POP PUSH2 0x389 DUP3 DUP3 PUSH2 0x342 JUMP JUMPDEST SWAP2 SWAP1 POP JUMP JUMPDEST PUSH1 0x0 PUSH8 0xFFFFFFFFFFFFFFFF DUP3 GT ISZERO PUSH2 0x3A9 JUMPI PUSH2 0x3A8 PUSH2 0x313 JUMP JUMPDEST JUMPDEST PUSH2 0x3B2 DUP3 PUSH2 0x302 JUMP JUMPDEST SWAP1 POP PUSH1 0x20 DUP2 ADD SWAP1 POP SWAP2 SWAP1 POP JUMP JUMPDEST DUP3 DUP2 DUP4 CALLDATACOPY PUSH1 0x0 DUP4 DUP4 ADD MSTORE POP POP POP JUMP JUMPDEST PUSH1 0x0 PUSH2 0x3E1 PUSH2 0x3DC DUP5 PUSH2 0x38E JUMP JUMPDEST PUSH2 0x373 JUMP JUMPDEST SWAP1 POP DUP3 DUP2 MSTORE PUSH1 0x20 DUP2 ADD DUP5 DUP5 DUP5 ADD GT ISZERO PUSH2 0x3FD JUMPI PUSH2 0x3FC PUSH2 0x2FD JUMP JUMPDEST JUMPDEST PUSH2 0x408 DUP5 DUP3 DUP6 PUSH2 0x3BF JUMP JUMPDEST POP SWAP4 SWAP3 POP POP POP JUMP JUMPDEST PUSH1 0x0 DUP3 PUSH1 0x1F DUP4 ADD SLT PUSH2 0x425 JUMPI PUSH2 0x424 PUSH2 0x2F8 JUMP JUMPDEST JUMPDEST DUP2 CALLDATALOAD PUSH2 0x435 DUP5 DUP3 PUSH1 0x20 DUP7 ADD PUSH2 0x3CE JUMP JUMPDEST SWAP2 POP POP SWAP3 SWAP2 POP POP JUMP JUMPDEST PUSH1 0x0 PUSH1 0x20 DUP3 DUP5 SUB SLT ISZERO PUSH2 0x454 JUMPI PUSH2 0x453 PUSH2 0x2EE JUMP JUMPDEST JUMPDEST PUSH1 0x0 DUP3 ADD CALLDATALOAD PUSH8 0xFFFFFFFFFFFFFFFF DUP2 GT ISZERO PUSH2 0x472 JUMPI PUSH2 0x471 PUSH2 0x2F3 JUMP JUMPDEST JUMPDEST PUSH2 0x47E DUP5 DUP3 DUP6 ADD PUSH2 0x410 JUMP JUMPDEST SWAP2 POP POP SWAP3 SWAP2 POP POP JUMP JUMPDEST PUSH1 0x0 DUP2 MLOAD SWAP1 POP SWAP2 SWAP1 POP JUMP JUMPDEST PUSH1 0x0 DUP3 DUP3 MSTORE PUSH1 0x20 DUP3 ADD SWAP1 POP SWAP3 SWAP2 POP POP JUMP JUMPDEST PUSH1 0x0 DUP2 SWAP1 POP PUSH1 0x20 DUP3 ADD SWAP1 POP SWAP2 SWAP1 POP JUMP JUMPDEST PUSH1 0x0 DUP2 SWAP1 POP SWAP2 SWAP1 POP JUMP JUMPDEST PUSH2 0x4C6 DUP2 PUSH2 0x4B3 JUMP JUMPDEST DUP3 MSTORE POP POP JUMP JUMPDEST PUSH1 0x0 PUSH2 0x4D8 DUP4 DUP4 PUSH2 0x4BD JUMP JUMPDEST PUSH1 0x20 DUP4 ADD SWAP1 POP SWAP3 SWAP2 POP POP JUMP JUMPDEST PUSH1 0x0 PUSH1 0x20 DUP3 ADD SWAP1 POP SWAP2 SWAP1 POP JUMP JUMPDEST PUSH1 0x0 PUSH2 0x4FC DUP3 PUSH2 0x487 JUMP JUMPDEST PUSH2 0x506 DUP2 DUP6 PUSH2 0x492 JUMP JUMPDEST SWAP4 POP PUSH2 0x511 DUP4 PUSH2 0x4A3 JUMP JUMPDEST DUP1 PUSH1 0x0 JUMPDEST DUP4 DUP2 LT ISZERO PUSH2 0x542 JUMPI DUP2 MLOAD PUSH2 0x529 DUP9 DUP3 PUSH2 0x4CC JUMP JUMPDEST SWAP8 POP PUSH2 0x534 DUP4 PUSH2 0x4E4 JUMP JUMPDEST SWAP3 POP POP PUSH1 0x1 DUP2 ADD SWAP1 POP PUSH2 0x515 JUMP JUMPDEST POP DUP6 SWAP4 POP POP POP POP SWAP3 SWAP2 POP POP JUMP JUMPDEST PUSH1 0x0 PUSH1 0x20 DUP3 ADD SWAP1 POP DUP2 DUP2 SUB PUSH1 0x0 DUP4 ADD MSTORE PUSH2 0x569 DUP2 DUP5 PUSH2 0x4F1 JUMP JUMPDEST SWAP1 POP SWAP3 SWAP2 POP POP JUMP JUMPDEST PUSH32 0x4E487B7100000000000000000000000000000000000000000000000000000000 PUSH1 0x0 MSTORE PUSH1 0x12 PUSH1 0x4 MSTORE PUSH1 0x24 PUSH1 0x0 REVERT JUMPDEST PUSH1 0x0 PUSH2 0x5AB DUP3 PUSH2 0x4B3 JUMP JUMPDEST SWAP2 POP PUSH2 0x5B6 DUP4 PUSH2 0x4B3 JUMP JUMPDEST SWAP3 POP DUP3 PUSH2 0x5C6 JUMPI PUSH2 0x5C5 PUSH2 0x571 JUMP JUMPDEST JUMPDEST DUP3 DUP3 MOD SWAP1 POP SWAP3 SWAP2 POP POP JUMP JUMPDEST PUSH1 0x0 DUP3 DUP3 MSTORE PUSH1 0x20 DUP3 ADD SWAP1 POP SWAP3 SWAP2 POP POP JUMP JUMPDEST PUSH32 0x496E76616C6964207061796C6F6164206C656E67746800000000000000000000 PUSH1 0x0 DUP3 ADD MSTORE POP JUMP JUMPDEST PUSH1 0x0 PUSH2 0x618 PUSH1 0x16 DUP4 PUSH2 0x5D1 JUMP JUMPDEST SWAP2 POP PUSH2 0x623 DUP3 PUSH2 0x5E2 JUMP JUMPDEST PUSH1 0x20 DUP3 ADD SWAP1 POP SWAP2 SWAP1 POP JUMP JUMPDEST PUSH1 0x0 PUSH1 0x20 DUP3 ADD SWAP1 POP DUP2 DUP2 SUB PUSH1 0x0 DUP4 ADD MSTORE PUSH2 0x647 DUP2 PUSH2 0x60B JUMP JUMPDEST SWAP1 POP SWAP2 SWAP1 POP JUMP JUMPDEST PUSH1 0x0 PUSH2 0x659 DUP3 PUSH2 0x4B3 JUMP JUMPDEST SWAP2 POP PUSH2 0x664 DUP4 PUSH2 0x4B3 JUMP JUMPDEST SWAP3 POP DUP3 PUSH2 0x674 JUMPI PUSH2 0x673 PUSH2 0x571 JUMP JUMPDEST JUMPDEST DUP3 DUP3 DIV SWAP1 POP SWAP3 SWAP2 POP POP JUMP JUMPDEST PUSH1 0x0 PUSH20 0xFFFFFFFFFFFFFFFFFFFFFFFFFFFFFFFFFFFFFFFF DUP3 AND SWAP1 POP SWAP2 SWAP1 POP JUMP JUMPDEST PUSH1 0x0 PUSH2 0x6AA DUP3 PUSH2 0x67F JUMP JUMPDEST SWAP1 POP SWAP2 SWAP1 POP JUMP JUMPDEST PUSH2 0x6BA DUP2 PUSH2 0x69F JUMP JUMPDEST DUP3 MSTORE POP POP JUMP JUMPDEST PUSH1 0x0 PUSH1 0x20 DUP3 ADD SWAP1 POP PUSH2 0x6D5 PUSH1 0x0 DUP4 ADD DUP5 PUSH2 0x6B1 JUMP JUMPDEST SWAP3 SWAP2 POP POP JUMP JUMPDEST PUSH1 0x0 DUP2 MLOAD SWAP1 POP SWAP2 SWAP1 POP JUMP JUMPDEST PUSH1 0x0 DUP2 SWAP1 POP SWAP3 SWAP2 POP POP JUMP JUMPDEST PUSH1 0x0 JUMPDEST DUP4 DUP2 LT ISZERO PUSH2 0x70F JUMPI DUP1 DUP3 ADD MLOAD DUP2 DUP5 ADD MSTORE PUSH1 0x20 DUP2 ADD SWAP1 POP PUSH2 0x6F4 JUMP JUMPDEST PUSH1 0x0 DUP5 DUP5 ADD MSTORE POP POP POP POP JUMP JUMPDEST PUSH1 0x0 PUSH2 0x726 DUP3 PUSH2 0x6DB JUMP JUMPDEST PUSH2 0x730 DUP2 DUP6 PUSH2 0x6E6 JUMP JUMPDEST SWAP4 POP PUSH2 0x740 DUP2 DUP6 PUSH1 0x20 DUP7 ADD PUSH2 0x6F1 JUMP JUMPDEST DUP1 DUP5 ADD SWAP2 POP POP SWAP3 SWAP2 POP POP JUMP JUMPDEST PUSH1 0x0 PUSH2 0x758 DUP3 DUP5 PUSH2 0x71B JUMP JUMPDEST SWAP2 POP DUP2 SWAP1 POP SWAP3 SWAP2 POP POP JUMP JUMPDEST PUSH2 0x76C DUP2 PUSH2 0x4B3 JUMP JUMPDEST DUP2 EQ PUSH2 0x777 JUMPI PUSH1 0x0 DUP1 REVERT JUMPDEST POP JUMP JUMPDEST PUSH1 0x0 DUP2 MLOAD SWAP1 POP PUSH2 0x789 DUP2 PUSH2 0x763 JUMP JUMPDEST SWAP3 SWAP2 POP POP JUMP JUMPDEST PUSH1 0x0 PUSH1 0x20 DUP3 DUP5 SUB SLT ISZERO PUSH2 0x7A5 JUMPI PUSH2 0x7A4 PUSH2 0x2EE JUMP JUMPDEST JUMPDEST PUSH1 0x0 PUSH2 0x7B3 DUP5 DUP3 DUP6 ADD PUSH2 0x77A JUMP JUMPDEST SWAP2 POP POP SWAP3 SWAP2 POP POP JUMP JUMPDEST PUSH32 0x4E487B7100000000000000000000000000000000000000000000000000000000 PUSH1 0x0 MSTORE PUSH1 0x32 PUSH1 0x4 MSTORE PUSH1 0x24 PUSH1 0x0 REVERT INVALID LOG2 PUSH5 0x6970667358 0x22 SLT KECCAK256 EXTCODECOPY 0x23 PUSH32 0x747F435E2226E4028EFF0785E626FDBA16C42E5ED000B0463E142C67C864736F PUSH13 0x634300081B0033000000000000 "
        },
        "methodIdentifiers": {
          "getBalances(bytes)": "76cbf1a4"
        }
      }
    }
  }
}